:020000040800F2
:1000000020EF0120E5030008F93C0008AF3A0008A2
:10001000F53C0008CD1F00080D4500080000000059
:1000200000000000000000000000000025030008A0
:10003000D11F000800000000810300085D3E000899
:10004000FF030008FF030008FF030008FF03000888
:10005000FF030008FF030008FF030008FF03000878
:10006000FF030008FF030008FF030008FF03000868
:10007000FF030008FF030008FF030008FF03000858
:10008000FF030008FF030008FF0300080000000052
:10009000000000000000000000000000FF03000856
:1000A000393F0008493F0008FF030008FF0300082C
:1000B000593F0008FF030008FF030008FF03000882
:1000C000FF030008FF030008FF030008FF03000808
:1000D000FF030008FD440008FF03000800000000C3
:1000E000FF030008FF030008FF03000800000000F2
:1000F000000000000000000000000000FF030008F6
:1001000000000000FF030008FF030008FF030008D1
:1001100000000000000000000000000000000000DF
:10012000FF030008FF030008FF030008FF030008A7
:10013000FF030008000000000000000000000000B5
:10014000000000000000000000000000FF030008A5
:10015000FF030008FF030008FF030008FF03000877
:10016000FF030008FF03000800000000000000007B
:10017000000000000000000000000000000000007F
:1001800000000000FF030008000000000000000065
:10019000FF030008FF03000800F002F800F0B2F8C7
:1001A0000AA090E8000C82448344AAF10107DA45D2
:1001B00001D100F0A7F8AFF2090EBAE80F0013F072
:1001C000010F18BFFB1A43F001031847BC070400D6
:1001D000DC0704000A444FF0000C10F8013B13F058
:1001E000070408BF10F8014B1D1108BF10F8015B90
:1001F000641E05D010F8016B641E01F8016BF9D183
:1002000013F0080F1EBF10F8014BAD1C0C1B09D1D9
:100210006D1E58BF01F801CBFAD505E014F8016B4B
:1002200001F8016B6D1EF9D59142D6D370470000DD
:100230000023002400250026103A28BF78C1FBD8EF
:10024000520728BF30C148BF0B6070476E2900F0CD
:100250006983702900F0B384662937F06E826529BE
:1002600037F06B82672937F06882612937F067823F
:1002700003681B0A28BF41F08001692900F016833A
:10028000642900F01383752900F010836F2900F0B2
:100290004084782900F07F84E92900F0DB83E42999
:1002A00000F0D883F52900F0D583EF2900F03D84D4
:1002B000F82900F07E840368DB0928BF41F0800143
:1002C000632901F08781732901F08C81E32901F012
:1002D0009781F32901F09C81002070471FB537F00A
:1002E00027FA01F0E7F904000020002136F086FE2D
:1002F000401C60600020002136F06AFEE0601FBDF7
:1003000010B510BD01F0A9F91146FFF7E7FF2CF079
:100310004DF801F085FA03B4FFF7F2FF03BC00F0DB
:100320001DFD00002C4B19680868B0E8F04F80F301
:100330000988BFF36F8F4FF0000080F3118870477A
:100340000000000008480068006880F308884FF04B
:10035000000080F3148862B661B6BFF34F8FBFF31D
:100360006F8F00DF00BF00BF08ED00E0DFF80C007A
:10037000016841F470010160704700BF88ED00E042
:10038000EFF30980BFF36F8F134B1A681EF0100F45
:1003900008BF20ED108A20E9F04F106009B44FF03B
:1003A000500080F31188BFF34F8FBFF36F8F35F08C
:1003B00051FB4FF0000080F3118809BC19680868F0
:1003C000B0E8F04F1EF0100F08BFB0EC108A80F3B9
:1003D0000988BFF36F8F704730020020EFF305806C
:1003E000704700000948804709480047FEE7FEE7DC
:1003F000FEE7FEE7FEE7FEE7FEE7FEE7FEE7FEE7D5
:1004000004480549054A064B70470000253F00088F
:1004100099010008206F012020EF012020AF01206A
:1004200020AF012053EA020C00F069802DE9F04B67
:100430004FF00006002B1FBFB3FA83F503FA05F453
:1004400024FA05F65E4012BF1643B2FA82F502FAAC
:1004500005F4C5F120051EBF22FA05FC44EA0C0490
:10046000203556EA044C4FEA144418BF641C4FF080
:1004700000084FF00009904271EB030C39D30029BA
:1004800019BFB1FA81F701FA07F6B0FA80F700FA5E
:1004900007F6C7F120071EBF20FA07FC46EA0C0644
:1004A0002037B6FBF4FCA7EB0507103F07F01F0B46
:1004B000CBF120060CFA0BFB2CFA06F644BFB34630
:1004C0000026202FA4BF5E464FF0000B5BEA060C0F
:1004D00008BF4FF0010B19EB0B09ABFB027C48EB9B
:1004E0000608C01B06FB02CC0BFB03CC71EB0C0116
:1004F000C1E70B46024641464846BDE8F08B13B5BE
:100500004FF000004FF00001AFF30080BDE81C4049
:10051000704700007CB51D4616460C00009001D0C7
:100520002044401E074B7B442A46694601903046D2
:1005300000F011FA05461CB10020694600F01EFAD1
:1005400028467CBD5D04000040EA0103024630B548
:100550009B0710D14FF0013400E008C208C91D1BF1
:100560009D4315EAC41FF8D013F0FF0102F8011BE8
:100570000DD01B0AF8E711F8013B002B02F8013BF4
:1005800005D011F8013B002B02F8013BF3D130BD3F
:1005900010B5431C02E010F8011B71B18107FAD1BC
:1005A0004FF0013202C88C1A8C4314EAC211F9D000
:1005B000C01A0A0603D0C01E10BDC01A10BD0A041E
:1005C00001D0801E10BD0902FCD0401E10BD032AC0
:1005D00040F2308010F0030C00F0158011F8013B60
:1005E000BCF1020F624498BF11F801CB00F8013B47
:1005F00038BF11F8013BA2F1040298BF00F801CB0B
:1006000038BF00F8013B11F0030300F02580083AE1
:10061000C0F0088051F8043B083A51F804CBA0E838
:100620000810F5E7121D5CBF51F8043B40F8043B8D
:10063000AFF30080D20724BF11F8013B11F801CBC2
:1006400048BF11F8012B24BF00F8013B00F801CB93
:1006500048BF00F8012B704710B5203AC0F00B805E
:10066000B1E81850203AA0E81850B1E81850A0E8B6
:100670001850BFF4F5AF5FEA027C24BFB1E8185010
:10068000A0E8185044BF18C918C0BDE810405FEA80
:10069000827C24BF51F8043B40F8043B08BF7047FC
:1006A000D20728BF31F8023B48BF11F8012B28BF01
:1006B00020F8023B48BF00F8012B704702F0FF030F
:1006C00043EA032242EA024200F002B84FF000027D
:1006D0000429C0F0128010F0030C00F01B80CCF154
:1006E000040CBCF1020F18BF00F8012BA8BF20F8C2
:1006F000022BA1EB0C0100F00DB85FEAC17C24BF16
:1007000000F8012B00F8012B48BF00F8012B7047BF
:100710004FF0000200B5134694469646203922BF9A
:10072000A0E80C50A0E80C50B1F12001BFF4F7AFE5
:10073000090728BFA0E80C5048BF0CC05DF804EBC7
:10074000890028BF40F8042B08BF704748BF20F835
:10075000022B11F0804F18BF00F8012B70470000EA
:100760004FF0013C50F8042B51F8043B9A4221D140
:10077000A2EB0C03934313EACC1317D150F8042BCC
:1007800051F8043B9A4215D1A2EB0C03934313EAB0
:10079000CC130BD150F8042B51F8043B9A4209D1E9
:1007A000A2EB0C03934313EACC13DBD04FF0000011
:1007B000704700BFD01A01BAB1FA81F101F01801F7
:1007C00022FA01F0CB40C1F12001DBB2C0B2C01A65
:1007D0002CFA01F3D11A914311EAC311E6D1704703
:1007E00070477047704770B5044685690068C10658
:1007F00001D5302600E02026C00707D070BDD4E91F
:10080000012130469047206A401C20626D1EF6D5BB
:1008100070BD70B5044685690078C00707D170BD0A
:10082000D4E9012120209047206A401C20626D1EDF
:10083000F6D570BD09684A0501D540B27047C905B3
:10084000FCD500B2704709684A0501D5C0B27047AF
:10085000C905FCD580B2704770B50C460546012A23
:1008600005D02878800600D5EA69002302E001233C
:1008700005E05B1C934202D2E05C0028F9D1A86934
:10088000E618C01AA861286A184428622846FFF7AB
:10089000AAFF04E0D5E9012114F8010B9047B44206
:1008A000F8D32846FFF7B5FF70BD00002DE9F041F1
:1008B0000646002410687529314616A510D0FFF7AA
:1008C000B9FF002802DA404213A507E031688A0721
:1008D00001D512A502E0490704D511A5012401E0C4
:1008E000FFF7B1FF00210A2206F1240709E0B0FB5F
:1008F000F2FCB0FBF2F302FB1C00303078541846D7
:10090000491C0028F3D123462A463046BDE8F04171
:1009100000F06FBA000000002D0000002B00000066
:100920002000000011680268006A530501D50870B4
:100930000AE0D30501D5088006E0130603D5C217E7
:10094000C1E9000200E008600120704701694A1C0B
:1009500002610878704700B58FB0CDE90131002100
:10096000059105497944CDE903101146684600F028
:1009700031F90FB000BD0000E5FFFFFF0A6802F883
:10098000010B0A607047D1E900239A4202D2531C3E
:100990000B601070704700002DE9FF5F15468A4616
:1009A0000446DFF8AC80F8440027D8E900103E4642
:1009B000CDE9001010E03AF816106A4602A800F0DF
:1009C0002BFE411C07D02178890603D5E26939182E
:1009D00091420DD80744761C2078800602D5E06944
:1009E000B84205DDAE42E6DB3AF816000028E2D157
:1009F000A069C01BA0612046FFF7F5FED8E90010F2
:100A0000CDE90010002017E03AF818106A4602A855
:100A100000F002FEB0F1FF3F81460BD000250DF142
:100A2000080B05E0D4E901211BF8050090476D1C77
:100A30004D45F7D308F10100B0428046E4DB206A5F
:100A4000384420622046FFF7E4FEBDE8FF9F000027
:100A5000EAF903002DE9F0418046D21D22F0070299
:100A60000025D2E90002F52915A614D0011E72F165
:100A7000000106DA0023D0EB030063EB020211A6AB
:100A800008E0D8F800108B0701D50FA602E049074F
:100A900001D50EA601251146002408F1240704E023
:100AA00000F062F930323A55641C50EA0102F7D185
:100AB0002B46324621464046BDE8F04100F099B948
:100AC000000000002D0000002B00000020000000AE
:100AD00030B4002100F1240408E002F00705D20838
:100AE000303542EA4372DB086554491C52EA03057B
:100AF000F3D10468002310A2250707D5A40600D46B
:100B000021B1C46901230DA2641EC46130BC00F090
:100B100070B910B5044621461068FFF794FE0246EE
:100B20002046BDE810400023D2E7D21D22F0070185
:100B3000D1E90023CCE700000000000030000000F5
:100B4000F0B40D460188090502D5214C7C4402E031
:100B50001F4C7C440E34002100F1240608E002F012
:100B60000F071209E75D42EA03721B097754491C1B
:100B700052EA0307F3D102780023120704D5702D3F
:100B800006D009B1022311342246F0BC00F031B97D
:100B900001231034F8E770B504460D46214610686D
:100BA000FFF751FE024629462046BDE8704000236B
:100BB000C6E7D21D22F00703D3E90023C0E703688C
:100BC000126843F0200303600823C3610023B7E7E2
:100BD0004CF803002DE9F05F894604464FF0000A07
:100BE000DFF874B1FB44C0F820A02046E1688847D4
:100BF000002874D0252806D0D4E901219047206A26
:100C0000401C2062F1E700265F462046E1688847E5
:100C10002028054607DB312D05D2781910F8200C65
:100C200008B10643F1E7B00701D526F00406C4F881
:100C30001CA00027C4F818A02A2D09D0284603F0CC
:100C4000BCFC38B304EB8708303DC8F8185019E0F5
:100C500059F8041B204604EB87029161E16888473C
:100C6000012F054618D1E069002820DA26F0200679
:100C70001DE0D8F8180000EB800005EB400030388C
:100C8000C8F818002046E1688847054603F095FC3F
:100C90000028EED1012F0AD02E2D08D12046E16880
:100CA00088477F1C0546022F46F02006C4DBA0695A
:100CB000002803DA404246F00106A061F00701D0A7
:100CC00026F010066C2D0BD0682D09D04C2D39D094
:100CD0006A2D35D0742D35D07A2D33D016E038E01A
:100CE000E1682F4620468847B842054609D16C2F57
:100CF00026D04FF48060E1680643204688470546C9
:100D000004E06C2F1AD04FF4807006430DB3A5F1A8
:100D10004100192802D8203546F400664A46294683
:100D2000204626604E46FFF791FA80B101280BD08D
:100D3000F61D26F0070000F1080956E74020E4E719
:100D40008020D8E70020D6E706F104094DE72846C1
:100D500052E7206ABDE8F09FDCF703000149182044
:100D6000ABBEFEE72600020030B5B0F10A024FEA42
:100D7000900E71F100034EEA817EB0EB0E0061EB44
:100D800091014FEA101E4EEA017E10EB0E0041EB7E
:100D900011114FEA102E4EEA016E10EB0E0041EBDE
:100DA00011214FEA104E4EEA014E10EB0E0041EBBE
:100DB0001141401841F100014FEAD00040EA417072
:100DC0004FEAD10110EB80054FEA810444EA9074A8
:100DD00044EB01046D1944EB0404521BA3414FF092
:100DE000000348BF0A3200D530BD401C41F100016C
:100DF00030BD2DE9F0470D4699469246044600F174
:100E000024080168880604D5E06921F010012160FA
:100E100000E00120A84201DD471B00E00027A16996
:100E20007A1902EB0900081AA0612078C00602D4E2
:100E30002046FFF7D8FC002608E0D4E901211AF883
:100E400006009047206A401C761C20624E45F4DB69
:100E50002078C0060AD52046FFF7C5FC06E0D4E995
:100E6000012130209047206A401C2062381EA7F1E3
:100E70000107F4DC07E0D4E9012118F805009047E8
:100E8000206A401C2062281EA5F10105F3DC2046E3
:100E9000FFF7BFFC2078000602D50220BDE8F087EE
:100EA0000120FBE770472DE9FF4F0C461E464FF02F
:100EB000FF378BB0D2E90001DDF860800A908A46E6
:100EC000C1F30A5505B93D46002108464FF0000020
:100ED000BAF1000F00F4400005DA00EB80004FF497
:100EE000400101EA50004FEA9059B9F1010F00DDCD
:100EF000B9460A9850EA4A000ED044F61050A5F2BE
:100F0000FF3545432F14B8F1000F1ED07542291E3E
:100F10001EDDC9F100021CE0B8F1010F4FF0000026
:100F200001D0302103E0F24305E02154401CB042DF
:100F3000FBDB30460022002121540B99C1F80880C8
:100F4000C1E900200FB0BDE8F08FBD1B6D1CDEE7CE
:100F50004A4600DA694206A800F0F0FB06AB93E8C7
:100F6000070003AB83E8070050460A9900F066FCCF
:100F70008DE80700A0F500501F3800900398002D61
:100F80000ADD42F21F014A460844002303A90390E8
:100F9000684600F0CFFE09E0A0F500504A461F3831
:100FA000002303A90390684600F0D9FE8DE80700EE
:100FB0000004000C03D04FF0FF30410800E0104661
:100FC000B8F1000F03D00022009215461EE0751EF6
:100FD00005D4FFF7C9FE303262556D1EF9D5B34610
:100FE0000122084302D000227F1C04E02078302830
:100FF00001D100227F1E002A099784D01DE0112D07
:1010000007DAFFF7B1FE303262556D1C50EA01027B
:10101000F5D1084302D00098C8B10EE00021681E47
:1010200005E0235C625C63542254401E491C8142EB
:10103000F7DBAB46A81B401E0990002004F80B000C
:101040000B98099AC0F80880C0E9002B7AE71126AE
:101050004FF0000857E72DE9F04F88460446D21DAF
:1010600022F0070191B0D1E90001CDE90A0103F0B6
:101070004FFA02460B98C00F01D02D2007E02068E0
:10108000810701D52B2002E0202101EAC000032ABC
:10109000099001D0072A05DB03464146204600F0AF
:1010A0000DFB0BE12078800601D5E06900E0062009
:1010B000B8F1650F814606D0B8F1660F18D0B8F1C7
:1010C000670F70D131E00020B9F1110F009001DB02
:1010D000112301E009F101030AAA01A90CA8FFF7F5
:1010E000E2FEDDE90C70002609F10105834647E0C8
:1010F00001204B4600904FF000470AAA01A90CA816
:10110000FFF7D1FEDDE90DB00C995D46002610B960
:1011100009F101000D18B9EB050003D4C0F1FF3649
:1011200009F10105A5EB09002BE0B9F1010F01DA86
:101130004FF001090020B9F1110F0090484601DD80
:10114000112300E003460AAA01A90CA8FFF7ABFE91
:10115000DDE90C704D4600268346207800070AD44E
:10116000AB4500DA5D4601A8012D04DD411911F8F7
:10117000011C302907D04F4502DA17F1040F04DAB9
:10118000012082460FE06D1EEEE7002F02DCED1B12
:101190003E4403E0781CA84200DD7D1CB81B00F132
:1011A000010A4FF000472078000703D4AA4501DB6D
:1011B0004FF0FF3A0021B7F1004F0DF143088DF8D1
:1011C000431024D002202B23002F01DA7F422D234D
:1011D0000A21021EA0F1010000DC5FB197FBF1FCC7
:1011E00097FBF1F201FB1C7C17460CF1300C08F860
:1011F00001CDEEE7A8F1010003702188090501D5B2
:10120000452100E06521A0F1010800F8011C0998C2
:101210000FA9A1EB0807FF1D00B10120411901EB47
:10122000EA70A1693844081A401EA0612078C006FF
:1012300002D42046FFF7D7FA099828B1D4E9012152
:101240009047206A401C20622078C00622D52046A4
:10125000FFF7C9FA1EE0002E04DBB34502DD01A84A
:10126000805D00E03020D4E901219047206A401CD5
:101270002062761CAAF101005FEA000A0AD100F0A0
:1012800019FAC0680168405CD4E901219047206ADE
:10129000401C2062281EA5F10105DCDC07E0D4E932
:1012A000012118F8010B9047206A401C2062381E6B
:1012B000A7F10107F3DC2046FFF7ABFA032011B0DA
:1012C00041E600002DE9F04F04460D46D21D22F004
:1012D000070089B0D0E900974846394603F018F96D
:1012E0000246F80F01D02D2307E02068810701D5C1
:1012F0002B2302E0202101EAC0038DF820300BB13E
:10130000012000E00020032A824601D0072A04DBE6
:101310002946204600F0D2F93FE12078800601D42A
:101320000D2500E0E569C7F30A560D2D49DA0021C5
:101330004FEA175B08464FF00000002F00F4400012
:1013400007DA00EB80004FF4400100EBD07001EAB7
:1013500060008115012901DD4FF0FF3100224FEAC5
:10136000850CBCF1180F06D31346ACF118004FF0F2
:101370008052C24003E04FF4801323FA0CF30CF1C7
:101380000C0CBCF1200F04D3ACF1200C09FA0CF0CA
:1013900001E007FA0CF000294FF0004801DD18B910
:1013A0000FE00ED140450CD319EB02095F4121B982
:1013B000404502D19F4329EA0209BBEB175F00D0E9
:1013C000761C2088000502D57B48784402E07A48E4
:1013D0007844193808AA302302F80A30037C0AF14D
:1013E0000101002E0AF1020A53546A4602DC4FF052
:1013F000300101E04FF031014FF001088DF800108D
:1014000002D0A6F2FF3603E059EA470100D06B4E46
:10141000002D02DC2178090704D54FF002082E21A7
:101420008DF80110C44600210BE0C7F303433F01D0
:10143000C35C491C6D1E02F80830052908F101083B
:1014400001DA002DF1DC00210CE000EB1973491CDE
:101450001B786D1E082902F808304FEA091908F1B7
:10146000010801DA002DF0DC21688B0602D516E0B8
:10147000A8F10108E04505DD02EB080313F8013C83
:10148000302BF5D0B8F1000F09DD02EB080313F89B
:10149000013C2E2B03D1090701D4A8F10108002D2E
:1014A00005DD3E2102F808106D1E08F10108407CA0
:1014B000002E02F8080008F1010804DA2D20764217
:1014C00002F8080002E02B2002F808000A214FF47D
:1014D0007A70864208F101080BDB96FBF0F330339B
:1014E00002F8083096FBF0F308F1010800FB1366E0
:1014F00001E0642E0CDB642096FBF0F3303302F83D
:10150000083096FBF0F308F1010800FB136601E0D8
:101510000A2E06DB96FBF1F0303002F8080008F1E5
:10152000010896FBF1F001FB1060303002F8080072
:10153000A16908F1010808EB050202EB0A00081A8C
:10154000A0612078C00602D42046FFF74CF9216A3A
:1015500008AE01EB0A00206204E0D4E9012116F88C
:10156000010B9047BAF1010AF7D22078C00602D5E4
:101570002046FFF738F96E4609E016F8010B3E28C1
:101580000FD0D4E901219047206A401C2062B8F1B5
:101590000108F2D22046FFF73CF909B00320BDE86C
:1015A000F08F206A2844206203E0D4E90121302032
:1015B00090476D1EEBD3F8E71AF0030002FCFFFF23
:1015C00010B5436913B1AFF3008001E0FFF744F9B0
:1015D000012010BD127800F124010A7000224A7027
:1015E0000122EDE711684FF0FF32E9E710B54369DA
:1015F00013B1AFF3008001E0FFF7CEF9012010BD79
:10160000128800F1240182840022C2840122EDE7C5
:1016100011684FF0FF32E9E770B516460C460546F3
:1016200000F040F8036893F80101012806D0FF2C70
:101630000FD8185D68B101202C7070BDD3F8070178
:101640003246214603F2071303442846BDE87040A2
:1016500018474FF0FF3070BD7047754600F0EAF84C
:10166000AE4605006946534620F00700854618B08F
:1016700020B5FEF7C5FEBDE820404FF000064FF054
:1016800000074FF000084FF0000B21F00701AC46B7
:10169000ACE8C009ACE8C009ACE8C009ACE8C009D6
:1016A0008D46704710B500F005F8001D10BD00BF55
:1016B0004D59030000487047E06E01202DE9F041CC
:1016C0001F46044603260168072A01F4006004DB74
:1016D00008B116A505E016A503E008B115A500E0C0
:1016E00015A521F010002060A069C01EA0610FB1F7
:1016F000401EA0612046FFF776F84FB1D4E90121E2
:1017000038469047206A401C2062C01C206206E0D8
:10171000206AFAE7D4E9012115F8010B9047761EFB
:10172000F8D22046FFF775F8BDE8F0814E414E0033
:101730006E616E00494E4600696E66002DE9F04705
:10174000814616468AB0354878440DC88DE80D00AC
:1017500032487844801C03AC0DC884E80D0041F683
:101760009B300844372190FBF1F290FBF1F5A5F195
:10177000800501FB12041B3C02D56442012000E0FD
:101780000020DFF898A080460027FA44AAF1BE0A9C
:101790000EE0E0070AD03246684607EB4701012316
:1017A0000AEB810100F0DBFA8DE8070064107F1C72
:1017B000002CEED1194F7F44AE3F19E0E80715D059
:1017C00007EB04100DF1180A90E80E008AE80E00ED
:1017D000C068F04201D1981908903246012306A949
:1017E00003A800F0BCFA03AB83E807006D10641C8B
:1017F000002DE3D14FF0010332466946B8F1000FE6
:1018000003A802D000F096FA01E000F0A8FAC9E9B6
:101810000001C9F808200AB0BDE8F0872CED0300EC
:1018200010B50446AFF300802046BDE81040FEF737
:1018300072BD000000487047C06E01205FEA400C96
:1018400008BF91F0000F4FEA8C234FEAC12243EA10
:1018500051514FEA1C5018BF00F5F0404FEA3000DC
:1018600018BF41F000415FEA6C5C00F02980BCF1D8
:10187000FF3F08BF40F080407047130C06BF1204C2
:101880004FF0100C4FF0000C130E04BF12020CF1BD
:10189000080C130F04BF12010CF1040C930F04BFCA
:1018A00092000CF1020CD30F04BF52000CF1010C9A
:1018B00011464FF00002A0F11F00A0EB0C00704792
:1018C00011F0004F08BF704731F000413FF4D5AF31
:1018D0000B0C06BF09044FF0100C4FF0000C0B0E60
:1018E00004BF09020CF1080C0B0F04BF09010CF135
:1018F000040C8B0F04BF89000CF1020CCB0F04BF4A
:1019000049000CF1010CCCF12003A0EB0C0022FAF1
:1019100003F302FA0CF241EA030100F101007047FF
:1019200020F07F4C80EA030023F07F47ACEB0703F5
:1019300003F57C5300F0004003F1FF032DE98049DB
:101940004FEA154B09B44FEA144325EA0B4E24EA3B
:1019500003480FF2042606EB132749083E785FEA96
:10196000320203FB0667C7F5000707FB06F64FEADE
:1019700054374FEAD64606F1020607FB066CCCF157
:10198000005C4FEA1C472CEA074C07FB06F40CFBF3
:1019900006F504EB15464FEA961634BF00204FF0CB
:1019A00000404FEAD13706FB07FC4FEA1C4C0CFB0A
:1019B0000BF7D21B03FB0CF761EB07010CFB0EF7D7
:1019C000B0EB074072EB17420CFB08F734BFA2EBF9
:1019D0000742B2EB074261EB17414FEA0C444FEA72
:1019E000910706FB07FC4FEA1C4C0CFB0BF7B0EB16
:1019F000C74072EB573203FB0CF734BFA2EBC74270
:101A0000B2EBC74261EB57310CFB0EF7B0EBC700EE
:101A100072EB57720CFB08F734BFA2EBC702B2EBB4
:101A2000C70261EB5771039F4FEA816141EA92114E
:101A300004EBCC044FEAD1374FEA826206FB07FC85
:101A400042EA90124FEA80604FEA1C4C0CFB0BF705
:101A5000D21B03FB0CF761EB07010CFB0EF7B0EB9D
:101A6000074072EB17420CFB08F734BFA2EB0742AA
:101A7000B2EB074261EB17414FEA8C554FEA9107F1
:101A800004EB9C2406FB07FC4FEA1C4C0CFB0BF7F9
:101A9000B0EBC74072EB573203FB0CF734BFA2EB3D
:101AA000C742B2EBC74261EB57310CFB0EF7B0EB0C
:101AB000C70072EB57720CFB08F734BFA2EBC702EA
:101AC000B2EBC70261EB577115EB4C254FEA816110
:101AD00041EA92114FEA82624FEAD13742EA90120C
:101AE00006FB07FC44F100044FEA80604FEA1C4CFF
:101AF0000CFB0BF7D21B03FB0CF761EB07010CFB94
:101B00000EF7B0EB074072EB17420CFB08F734BF3F
:101B1000A2EB0742B2EB074261EB174115EB1C1534
:101B20004FEA813141EA92414FEA823242EA9042E1
:101B30004FEA80304FEA0C7644F1000448EA034350
:101B40004EEA0B484FF0000EB2EB080C71EB0307A6
:101B500024BF624639464EEB0E0E4FF0000B0018C4
:101B6000524149414BEB0B0BB2EB080C71EB0307F5
:101B70007BF1000B24BF624639464EEB0E0E4FF050
:101B8000000B0018524149414BEB0B0BB2EB080C18
:101B900071EB03077BF1000B24BF624639464EEB25
:101BA0000E0E51EA020718BF46F0010616EB0E763C
:101BB00055F1000254F1000103D5BDE88901BDE8EB
:101BC0000088BDE88901BDE80048B619524141EBE3
:101BD0000101A3F10103704780807F7E7D7C7B7AC9
:101BE0007978777676757473727171706F6E6E6DC9
:101BF0006C6C6B6A6A69686867666665646463636F
:101C000062616160605F5F5E5E5D5D5C5C5B5B5AF4
:101C10005A59595858575756565555555454535361
:101C200052525251515050504F4F4F4E4E4D4D4DBC
:101C30004C4C4C4B4B4B4A4A4A4949494848484707
:101C40004747474646464545454444444443434345
:101C50004342424242414141002B9C4630D47700EE
:101C60002BD01CB54FEA370703B44FF010004FF0EC
:101C70001001BAF1000F06D0BCF1000FDCBF40F03C
:101C8000080040F008014FF000000FBCBDE8104014
:101C90000BF1010BBBF1010F08BF5FEA170722BF71
:101CA00012F1010211F101014FF0004143F1000373
:101CB00000F0004043EA00007047F9D35708D0E72E
:101CC00046EA064613F1400F4FEA16461FDD13F1B0
:101CD000200FDFBF16430A46002120335B42BED0EF
:101CE000C3F1200746EA064602FA07F74FEA16460E
:101CF00046EA0706C3F1200722FA03F201FA07F7C2
:101D000021FA03F14FF0000342EA0702A7E746EA8F
:101D1000020646EA06464FEA164646EA0106BCBFF8
:101D200046EA0646360C4FF000034FF000024FF033
:101D3000000194E72DE9804C9A46934670B491E8EF
:101D4000380007C831EA400C48BF34EA430C03D5D9
:101D5000FFF7E6FDFFF780FFF0BCBDE8008C2DE942
:101D6000804C9A46934670B491E8380007C810F04A
:101D7000804F08BF13F0804F03D100F005F8FFF744
:101D80006BFFF0BCBDE8008C20F07F4780EA0300C9
:101D900023F07F4C07EB0C03A3F57C5300F00040CD
:101DA000A3F1FE0392F0000F00F0B38095F0000F56
:101DB00000F077802DE901494FEA11404FEA1446BF
:101DC00021EA004800FB06FC24EA064708FB06F669
:101DD00007FB08F800FB07F718EB06484CEB164C1E
:101DE0004FEA124B18EB07484FEA15464CEB1740E9
:101DF00022EA0B4E0BFB06FC25EA06470EFB06F615
:101E000007FB0EFE0BFB07F71EEB064E4CEB164CCA
:101E10004FF000061EEB074E4CEB174B18EB0B0870
:101E200040F1000018EB0E0B58EB000840F10000E9
:101E30008F1A4FF000013CBFC943661B14BFB5EBBE
:101E4000040C00213CBFC943F61B4FEA17444EEA7D
:101E50008E0E27EA04454FEA1C4704FB07622CEA72
:101E6000074C05FB07F70CFB05F604FB0CFC16EB17
:101E7000074642EB174216EB0C4642EB1C421BEBAB
:101E8000060658EB0202414146EA9E0601D5BDE82E
:101E90000189B619524141EB0101A3F10103BDE8EB
:101EA00001894FEA14454FEA114724EA054621EA21
:101EB000074C05FB07F406FB07F70CFB06F105FBD7
:101EC0000CFC11EB074144EB17444FEA124711EBAE
:101ED0000C4144EB1C4422EA074C05FB07F206FBCD
:101EE00007F70CFB06F605FB0CFC16EB074642EB6E
:101EF000174216EB0C4642EB1C456A1854F10001E0
:101F000048BF7047B619524141EB0101A3F10103EB
:101F1000704795F0000F37D04FEA11424FEA14474F
:101F200021EA024624EA074C02FB07F106FB07F709
:101F30000CFB06F402FB0CFC14EB074441EB1741CD
:101F40004FEA154714EB0C4441EB1C4125EA074CC2
:101F500002FB07F506FB07F70CFB06F602FB0CFC81
:101F600016EB074645EB174516EB0C4645EB1C42B6
:101F7000121951F1000148BF7047B619524141EBA7
:101F80000101A3F1010370474FEA14454FEA1147DD
:101F900024EA054621EA074C05FB07F106FB07F793
:101FA0000CFB06F24FF0000605FB0CFC12EB07429F
:101FB00041EB174112EB0C4251EB1C4148BF7047FB
:101FC000921841EB0101A3F10103704700BFFEE746
:101FD000704772B600BFFEE770B50446A56D00F00D
:101FE00009FA064694F83500022808D0802060657A
:101FF00000BF002084F8340000BF012070BD2068BD
:10200000006820F01600216808602068406920F010
:10201000800021684861206C08B9A06C28B1206854
:10202000006820F00800216808602068006820F03F
:1020300001002168086010E000F0DCF9801B052831
:102040000BD920206065032084F8350000BF0020F4
:1020500084F8340000BF0320D0E72068006800F057
:1020600001000028E8D194F85C103F208840A86067
:10207000012084F8350000BF002084F8340000BF40
:1020800000BFBBE7014691F83500022803D080204D
:10209000486501207047052081F835000868006810
:1020A00020F001000A6810600020F3E770B50446D4
:1020B00000F0A0F906462546681C10B104480078D7
:1020C000054400BF00F096F9801BA842FAD370BD0A
:1020D00020000020F0B50C4600250022002300213E
:1020E00083E0012606FA01F504EA0502AA427BD143
:1020F000404E8F0856F827308E07370F0F26BE4008
:1021000033403D4EB04201D1002614E03B4EB04278
:1021100001D101260FE03A4EB04201D102260AE079
:10212000384EB04201D1032605E0374EB04201D10E
:10213000042600E007268F073F0FBE409E4224D1B1
:10214000324E36689643314F3E603E1D36689643A8
:102150003F1D3E602D4E0C36366896432B4F0C3794
:102160003E603E1F366896433F1F3E608E07370F26
:102170000F2606FA07F31F4E8F0856F827609E4376
:102180001C4F4FEA910C47F82C6006684FEA410C4F
:10219000032707FA0CF7BE430660CF0800F12006BC
:1021A00056F827604F074FEAD76C0F2707FA0CF74E
:1021B000BE434FEAD10C00F1200747F82C60C668F7
:1021C0004FEA410C032707FA0CF7BE43C660466886
:1021D00001278F40BE43466086684FEA410C0327C3
:1021E00007FA0CF7BE438660491C1029FFF479AF4B
:1021F000F0BD000008380140000002400004024029
:1022000000080240000C024000100240003C014067
:10221000F8B502460B460025002400200021C7E047
:10222000012606FA01F51E6806EA0504AC4274D1DF
:102230001E7906F00306012E04D01E7906F003066F
:10224000022E13D190684F000326BE40B0434F00CA
:10225000DE68BE4030439060506801268E40B04337
:102260001E79C6F300168E40304350601E7906F08A
:102270000306032E09D0D0684F000326BE40B043AA
:102280004F009E68BE403043D0601E7906F00306C2
:10229000022E13D1CF0802F1200656F827004E0770
:1022A000F70E0F26BE40B0434F07FF0E1E69BE401B
:1022B0003043CF0802F1200646F8270010684F008F
:1022C0000326BE40B0431E7906F003064F00BE4011
:1022D000304310605E6806F44036002E67D000BFC1
:1022E00000260096344E366846F48046324F3E60F3
:1022F0003E46366806F48046009600BF00BF2F4E6B
:102300008F0856F827008E07370F0F26BE40B043C0
:102310002B4EB24202D1002615E048E0294EB242CF
:1023200001D101260FE0284EB24201D102260AE077
:10233000264EB24201D1032605E0254EB24201D11C
:10234000042600E007268F073F0FBE4030431B4E98
:102350008F0846F827001F4E3068A0435E6806F4D9
:10236000801606B120431B4E3060361D3068A043F6
:102370005E6806F4001606B12043164E361D306026
:10238000144E361F3068A0435E6806F4003606B16E
:102390002043104E361F3060361F3068A0435E6801
:1023A00006F4803606B120430A4E083E3060491CD0
:1023B0001029FFF435AFF8BD443802400838014019
:1023C000000002400004024000080240000C0240ED
:1023D00000100240083C0140024613690B400BB15B
:1023E000012000E0002070470AB1816101E00B0488
:1023F00083617047014800687047000018000020A2
:102400000348006803490978084401490860704797
:10241000180000202000002010B50D48006840F48E
:1024200000700B4908600846006840F4806008604E
:102430000846006840F480700860032000F0E0F86F
:102440000F2000F007F800F05FF8002010BD00003A
:10245000003C02402DE9F04188B004460027B84610
:1024600000BF002001902448006840F0010022498C
:1024700008600846006800F00100019000BF00BF3E
:1024800002A903A800F092F9069F1FB900F0B6F95F
:10249000054602E000F0B2F945001848B5FBF0F03F
:1024A000A0F101084FF080401549086040F2E73183
:1024B0001348C160C0F8048000210161816081611E
:1024C00000F06CFE064696B90D4800F009FF06467E
:1024D0006EB91C2000F042F8102C07D200222146D1
:1024E0001C2000F04FF80748046000E00126304649
:1024F00008B0BDE8F08100004038024040420F00C3
:10250000500500201C00002008B500BF00200090EE
:102510001148006840F480400F4908600846006890
:1025200000F48040009000BF00BF00BF002000907A
:10253000081F006840F08050091F086008460068C6
:1025400000F08050009000BF00BF00220F21901EBD
:1025500000F018F808BD0000443802400146084663
:1025600000280DDB00BF00BF00F01F0301229A40CE
:1025700043099B0003F1E023C3F8002100BF00BF23
:1025800000BF70472DE9F05F80460D4616460027D4
:1025900001F0D6FF074639462A46334601F00700C8
:1025A000C0F1070ABAF1040F02D94FF0040A01E0A2
:1025B000C0F1070AD14600F1040ABAF1070F02D2AE
:1025C0004FF0000A01E0A0F1030AD4464FF0010ADF
:1025D0000AFA09FAAAF1010A0AEA020A0AFA0CFA44
:1025E0004FF0010B0BFA0CFBABF1010B0BEA030BE9
:1025F0004AEA0B042146404601F0AAFFBDE8F09FDD
:1026000000BF00F00702064B19684FF6FF031940A0
:10261000044B0B4343EA0221014B196000BF704792
:102620000CED00E00000FA0570B504460D460CB94B
:10263000012070BD5848006800F00700A84209D288
:1026400055490D700846006800F00700A84201D007
:102650000120EEE7207800F0020002281DD120784A
:1026600000F00400042805D14C48006840F4E05014
:102670004A490860207800F00800082805D147483A
:10268000006840F46040454908604448006820F014
:10269000F000A168084341490860207800F001007B
:1026A000A8B36068012807D13C4808380068C0F327
:1026B0004040B8B90120BCE76068022802D06068D9
:1026C000032807D1354808380068C0F3406048B98E
:1026D0000120AEE7314808380068C0F3400008B96F
:1026E0000120A6E72D48006820F003006168084338
:1026F0002A490860FFF77EFE064609E0FFF77AFEEA
:10270000801B41F28831884202D9032091E707E01B
:102710002248006800F00C006168B0EB810FEDD139
:102720001D48006800F00700A84209D91A490D7039
:102730000846006800F00700A84201D0012078E7B1
:10274000207800F00400042807D11448006820F421
:10275000E050E168084311490860207800F0080063
:10276000082808D10D48006820F46040216940EA3B
:10277000C1000A49086000F061F808490968C1F31E
:102780000311074A515CC8400649086006480068C2
:10279000FFF760FE00204CE7003C02400838024092
:1027A000D0770308240000201C0000200F220260C4
:1027B0000D4A126802F0030242600B4A126802F0EE
:1027C000F0028260084A126802F4E052C260064ACF
:1027D000126802F46042D2080261044A126802F0F0
:1027E00007020A607047000008380240003C0240BF
:1027F00001480068704700002400002000B5FFF782
:10280000F7FF04490968C1F38221034A515CC840BB
:1028100000BD000008380240E077030800B5FFF76C
:10282000E7FF04490968C1F34231034A515CC840DB
:1028300000BD000008380240E07703082DE9F047AA
:10284000002400250026A1462548006800F00C0061
:1028500020B1042805D008283AD105E0DFF884909B
:1028600039E0DFF8849036E01D48001F006800F072
:102870003F041B48001F006800F4800078B11A482C
:102880001749091F0968C1F38811A0FB01700146AF
:10289000224600233846FDF7C5FD05460EE01148E7
:1028A0000F49091F0968C1F38811A0FB0170014697
:1028B000224600233846FDF7B5FD05460848001FAF
:1028C0000068C0F30140401C4600B5FBF6F902E089
:1028D000DFF8109000BF00BF4846BDE8F087000059
:1028E000083802400024F40040787D01F8B5044621
:1028F0000CB90120F8BD207800F00100002874D048
:10290000F948006800F00C0004280DD0F648006873
:1029100000F00C00082813D1F348001F006800F4F1
:102920008000B0F5800F0BD1EF4808380068C0F385
:102930004040002859D06068002856D10120D9E7CE
:1029400000BF6068B0F5803F08D1E74808380068EC
:1029500040F48030E449083908601EE06068B0F552
:10296000A02F0DD1E0480838006840F48020DE49EF
:10297000083908600846006840F4803008600CE0C0
:10298000D9480838006820F48030D74908390860F1
:102990000846006820F48020086000BF606890B19D
:1029A000FFF728FD054606E0FFF724FD401B6428DD
:1029B00001D903209EE7CC4808380068C0F34040A6
:1029C0000028F1D011E0FFF715FD054606E0FFF7FE
:1029D00011FD401B642801D903208BE7C248083849
:1029E0000068C0F340400028F1D1207800F00200D8
:1029F00002285FD1BC48006800F00C0058B1BA480A
:102A0000006800F00C0008281CD1B748001F0068BF
:102A100000F48000B0B9B44808380068C0F3400042
:102A200020B1E068012801D0012063E7AE480838F2
:102A3000006820F0F800216940EAC100AA4908397D
:102A4000086037E0E06800B30120A8490860FFF79C
:102A5000D1FC054606E0FFF7CDFC401B022801D95A
:102A6000032047E7A04808380068C0F3400000286A
:102A7000F1D09D480838006820F0F800216940EA4C
:102A8000C10099490839086014E00020974908609E
:102A9000FFF7B0FC054606E0FFF7ACFC401B022840
:102AA00001D9032026E7904808380068C0F34000A9
:102AB0000028F1D1207800F0080008282CD16069A6
:102AC000A8B101208A490860FFF794FC054606E09A
:102AD000FFF790FC401B022801D903200AE7824837
:102AE0006C300068C0F340000028F1D014E00020F2
:102AF0007F490860FFF77EFC054606E0FFF77AFC99
:102B0000401B022801D90320F4E677486C300068A6
:102B1000C0F340000028F1D1207800F00400042820
:102B200070D1002770483830006800F0805090B9AC
:102B300000BF002000906C483830006840F08050A2
:102B40006949383108600846006800F080500090FC
:102B500000BF00BF01276748006800F48070B0B96B
:102B60006448006840F4807062490860FFF742FCE6
:102B7000054606E0FFF73EFC401B022801D9032072
:102B8000B8E65C48006800F480700028F2D000BF0E
:102B9000A068012808D154486830006840F001005E
:102BA0005149683108601DE0A06805280DD14E48E4
:102BB0006830006840F004004B49683108600846FE
:102BC000006840F0010008600CE047486830006889
:102BD00020F001004449683108600846006820F090
:102BE0000400086000BFA068A8B1FFF703FC054619
:102BF00009E0FFF7FFFB401B41F28831884202D910
:102C0000032077E626E0384868300068C0F34000CB
:102C10000028EED013E0FFF7EDFB054608E0FFF7D4
:102C2000E9FB401B41F28831884201D9032061E66B
:102C30002D4868300068C0F340000028EFD1012F14
:102C400007D129483830006820F0805026493831B3
:102C5000086000BFA069002845D02348006800F044
:102C60000C0008285DD0A069022845D100201F492A
:102C70000866FFF7BFFB054606E0FFF7BBFB401BFE
:102C8000022801D9032035E6174808380068C0F348
:102C900040600028F1D1D4E907010843616A40EAA5
:102CA00081110122A06AC2EB500041EA00412C20B0
:102CB000005D41EA00600C49091F086001200B49D2
:102CC0000866FFF797FB054606E0FFF793FB401BFE
:102CD000022801D903200DE6034808380068C0F334
:102CE00040600028F1D049E0083802400000474227
:102CF000800E474200700040002021490866FFF71F
:102D000079FB054606E0FFF775FB401B022801D959
:102D10000320EFE51B480068C0F340600028F2D1B3
:102D20002CE0A069012800D1E4E51648001D0668E2
:102D3000A069012820D006F48001E06981421BD1FE
:102D400006F03F01206A814216D147F6C07030403C
:102D5000616AB0EB811F0FD106F440310122A06AF5
:102D6000C2EB5000B1EB004F06D106F070612C2091
:102D7000005DB1EB006F01D00120BBE50020B9E59B
:102D8000000047420038024010B504460CB901204B
:102D900010BD022084F851002068006820F0400037
:102DA00021680860204600F06FF80020606584F814
:102DB000510000BF84F8500000BF00BFE8E710B525
:102DC00004460CB9012010BD606A38B96068B0F5DE
:102DD000827F00D105E00021E16102E00021216154
:102DE00061610021A16294F8510028B9002084F8A3
:102DF0005000204600F060F8022084F8510020685E
:102E0000006820F0400021680860A08800F482700B
:102E1000218901F404410843A18901F400610843B8
:102E2000217C01F002010843217D01F001010843EA
:102E3000218B01F400710843217F01F03801084320
:102E40002021095D01F080010843218D01F400512A
:102E50000843216808600421A06901EA104094F841
:102E6000241001F010010843216848602068C069FF
:102E700020F400602168C86100206065012084F8AA
:102E8000510000209FE7000010B504460749206864
:102E9000884209D10648006820F48050044908603F
:102EA000E0210448FFF716F910BD00000030014092
:102EB000443802400000024010B586B00446142198
:102EC00001A8FDF725FC1B49206888422FD100BFCF
:102ED000002000901848006840F4805016490860AF
:102EE0000846006800F48050009000BF00BF00BF9B
:102EF0000020009010481438006840F001000E498E
:102F0000143908600846006800F00100009000BF16
:102F100000BFE020019002200290002003900320D7
:102F200004900520059001A90448FFF771F906B047
:102F300010BD000000300140443802400000024053
:102F40002DE9F84F0446884616461D464FF0000A04
:102F500000BF94F85000012802D10220BDE8F88F8C
:102F6000012084F8500000BFFFF744FA0746B1463D
:102F700094F85100012802D04FF0020AB7E0B8F1EE
:102F8000000F00D016B94FF0010AB0E0032084F81A
:102F9000510000206065C4F83080A686E686A063F4
:102FA000A087E08760642064A068B0F5004F0BD173
:102FB0002068006820F040002168086020680068F0
:102FC00040F48040216808602068006800F04000FC
:102FD000402805D02068006840F040002168086063
:102FE000E068B0F5006F32D1606810B1B9F1010F3F
:102FF00009D1206B00882168C860206B801C206389
:10300000E08E401EE0861EE02068806800F002002E
:1030100002280AD1206B00882168C860206B801CC0
:103020002063E08E401EE0860DE0FFF7E3F9C01B51
:10303000A84201D3681C00B92DB94FF0030A012042
:1030400084F8510053E0E08E0028DDD131E0606863
:1030500010B1B9F1010F09D1206B00782168087314
:10306000206B401C2063E08E401EE0861EE020683E
:10307000806800F0020002280AD1206B00782168E5
:103080000873206B401C2063E08E401EE0860DE03C
:10309000FFF7B0F9C01BA84201D3681C00B92DB9D5
:1030A0004FF0030A012084F8510020E0E08E002850
:1030B000DDD13A462946204600F020FE08B1202006
:1030C0006065A06850B900BF002000902068C0680B
:1030D000009020688068009000BF00BF606D10B154
:1030E0004FF0010A02E0012084F8510000BF00BF48
:1030F000002084F8500000BF50462FE7704770470B
:1031000030B502460B4600BF92F83C00012801D1C1
:10311000022030BD012082F83C0000BF022082F86E
:103120003D00106844681068816824F070041868D5
:10313000044310684460144D1068A84213D010680E
:10314000B0F1804F0FD0114D1068A8420BD0104D38
:103150001068A84207D00F4D1068A84203D00E4D4A
:103160001068A84205D121F0800158680143106819
:103170008160012082F83D0000BF002082F83C0001
:1031800000BF00BFC5E70000000001400004004090
:1031900000080040000C00400040014010B504460B
:1031A0000CB9012010BD94F83D0028B9002084F826
:1031B0003C00204600F026F8022084F83D00211D46
:1031C000206800F0D1FE012084F8460000BF84F89A
:1031D0003E0001213F20015540200155412001556D
:1031E00000BF00BF012084F8420043200155442065
:1031F00001554520015500BF012084F83D00002005
:10320000D0E7000038B504461249206888421FD133
:1032100000BF002000901048006840F001000E49F7
:1032200008600846006800F00100009000BF00BF81
:10323000002205211820FFF7A5F91820FFF78EF9C5
:10324000002205211920FFF79DF91920FFF786F9C3
:1032500038BD00000000014044380240014691F8AA
:103260003D00012801D001207047022081F83D0077
:10327000164B0868984213D00868B0F1804F0FD001
:10328000134B086898420BD0124B0868984207D03D
:10329000114B0868984203D0104B086898420CD133
:1032A0000868806800F00702062A0CD008680068E9
:1032B00040F001000B68186005E00868006840F005
:1032C00001000B6818600020CEE7000000000140FC
:1032D0000004004000080040000C00400040014095
:1032E000014691F83D00012801D0012070470220DD
:1032F00081F83D000868C06840F001000B68D860A4
:10330000164B0868984213D00868B0F1804F0FD070
:10331000134B086898420BD0124B0868984207D0AC
:10332000114B0868984203D0104B086898420CD1A2
:103330000868806800F00702062A0CD00868006858
:1033400040F001000B68186005E00868006840F074
:1033500001000B6818600020C8E700000000014071
:103360000004004000080040000C00400040014004
:10337000014600BF0868006A41F21112104050B9BE
:103380000868006A9210104028B90868006820F0A8
:1033900001000A68106000BF012081F83D00002094
:1033A00070472DE9F04104460D46002700BF94F810
:1033B0003C00012802D10220BDE8F081012084F800
:1033C0003C0000BF022084F83D002068866826F09B
:1033D000770626F47F46206886602868502833D018
:1033E0000CDC202850D004DC00284BD0102851D110
:1033F00049E0302849D040284CD139E060282DD010
:10340000702807D0B0F5805F03D0B0F5005F41D1E0
:103410000DE041E0D5E902136A68206800F0FEFD86
:103420002068866846F077062068866034E0D5E933
:1034300002136A68206800F0F1FD2068806840F49B
:1034400080402168886027E0EA686968206800F0A9
:10345000F9FD5021206800F0ECFD1DE0EA68696884
:10346000206800F002FE6021206800F0E2FD13E019
:10347000EA686968206800F0E5FD4021206800F0F6
:10348000D8FD09E000BF00BF00BF2968206800F038
:10349000D0FD01E0012700BF00BF012084F83D00FE
:1034A00000BF002084F83C0000BF384684E7704726
:1034B00070B504462068C5682068066906F00200F9
:1034C000022819D105F00200022815D1401F2168F9
:1034D0000861012020772068806900F0030018B19E
:1034E0002046FFF7E4FF05E0204600F097F820466D
:1034F00000F095F80020207706F00400042819D188
:1035000005F00400042815D1C04321680861022099
:1035100020772068806900F4407018B12046FFF7DA
:10352000C6FF05E0204600F079F8204600F077F865
:103530000020207706F00800082819D105F00800BF
:10354000082815D1C043216808610420207720682D
:10355000C06900F0030018B12046FFF7A8FF05E09E
:10356000204600F05BF8204600F059F80020207754
:1035700006F01000102819D105F01000102815D100
:10358000C04321680861082020772068C06900F4E2
:10359000407018B12046FFF78AFF05E0204600F092
:1035A0003DF8204600F03BF80020207706F00100AF
:1035B00048B105F0010030B16FF0010021680861E9
:1035C000204600F02DF806F08000802809D105F093
:1035D0008000802805D1C043216808612046FFF79C
:1035E0008DFD06F04000402809D105F0400040283C
:1035F00005D1C04321680861204600F01AF806F0A2
:103600002000202809D105F02000202805D1C04342
:10361000216808612046FFF772FD70BD7047704752
:1036200010B504462068B0F1804F01D1FEF7E8FEE6
:1036300010BD7047704770472DE9F84F0446206869
:1036400005682068C668206847694FF00009CA46C7
:1036500005F00F09B9F1000F0AD105F0200038B1CB
:1036600006F0200020B1204600F064FDBDE8F88F90
:10367000B9F1000F7CD007F0010018B906F4907082
:10368000002875D005F0010030B106F4807018B143
:10369000606C40F00100606405F0040030B107F098
:1036A000010018B1606C40F00200606405F0020097
:1036B00030B107F0010018B1606C40F004006064A4
:1036C00005F0080048B106F0200010B907F001002D
:1036D00018B1606C40F008006064606C002846D04F
:1036E00005F0200028B106F0200010B1204600F0BF
:1036F00021FD20684069C0F3801A606C00F008006A
:1037000010B9BAF1000F2DD0204600F0CDFC206892
:10371000406900F04000402820D100BF00BF216870
:10372000143151E8001F21F040002168143141E8B4
:103730000002002AF3D100BFE06B50B17748E16B83
:103740000865E06BFEF79EFC88B1E06B016D884771
:103750000DE02046FFF76FFF09E009E02046FFF784
:103760006AFF04E02046FFF766FF002060647DE703
:10377000206B012878D105F01000002874D006F0E5
:1037800010000028FAD000BF0020009020680068D8
:10379000009020684068009000BF00BF206840692A
:1037A00000F04000402860D1E06B006840681FFADC
:1037B00080F8B8F1000F56D0A08D404553DDA4F835
:1037C0002E80E06BC069B0F5807F43D000BF00BFA2
:1037D00021680C3151E8001F21F4807021680C3100
:1037E00041E80002002AF3D100BF00BF00BF2168FA
:1037F000143151E8001F21F001002168143141E823
:103800000002002AF3D100BF00BF00BF21681431BD
:1038100051E8001F21F040002168143141E8000206
:10382000002AF3D100BF202084F84200002020634A
:1038300000BF00BF21680C3151E8001F21F01000CB
:1038400021680C3141E80002002AF3D100BFE06B8F
:10385000FEF7C2FB02206063A08DE28D801A81B268
:103860002046FFF7E7FE01E742E0A08DE18D401A18
:103870001FFA80F8E08DD0B3B8F1000F37D000BF49
:1038800000BF21680C3151E8001F21F490702168BD
:103890000C3141E80002002AF3D100BF00BF00BF95
:1038A0002168143151E8001F21F001002168143112
:1038B00041E80002002AF3D100BF202084F8420032
:1038C0000020206300BF00BF21680C3151E8001FB9
:1038D00021F0100021680C3141E80002002AF3D1E8
:1038E00000BF0220606341462046FFF7A3FEBDE60D
:1038F00005F0800030B106F0800018B1204600F0DD
:10390000CDFDB3E605F0400030B106F0400018B13F
:10391000204600F0FFFBA9E600BFA7E6954000089F
:1039200010B504460CB9012010BDA06900B100E03B
:1039300000BF94F8410028B9002084F840002046D8
:1039400000F02AF8242084F841002068C06820F4A0
:1039500000502168C860204600F06AFC20680069B9
:1039600020F49040216808612068406920F02A0016
:10397000216848612068C06840F400502168C86030
:1039800000206064202084F8410084F84200002078
:10399000606300BFC8E7000010B586B0044614217C
:1039A00001A8FCF7B5FE1F492068884238D100BF46
:1039B000002000901C48006840F010001A49086080
:1039C0000846006800F01000009000BF00BF00BF74
:1039D0000020009014481438006840F0010012499B
:1039E000143908600846006800F00100009000BF2C
:1039F00000BF4FF4C06001900220029000200390AD
:103A0000032004900720059001A90848FEF700FC58
:103A1000002205212520FEF7B5FD2520FEF79EFD9D
:103A200006B010BD001001404438024000000240C2
:103A300070B504460D46164694F8420020280BD176
:103A400005B10EB9012070BD002020633246294621
:103A5000204600F003FDF6E70220F4E710B5044627
:103A600003492068884201D131F0B2FB10BD00004B
:103A70000010014010B5034693F84100202813D1EF
:103A800001B10AB9012010BD19629A84DA840020BC
:103A90005864212083F841001868C06840F0800015
:103AA0001C68E0600020EEE70220ECE7704700BFF2
:103AB000FEE7000010B50D4829F063FA0C490860D4
:103AC0000C4A00210C4829F0DCFA0C4908600C4A29
:103AD00000210C4829F0D5FA0B4908600B4A002157
:103AE0000B4829F0CEFA0B49086010BDC0770308D7
:103AF0000C000020547703085554030800000020F0
:103B0000787703082D620108040000209C770308E1
:103B1000915C01080800002000B587B0142102A8BC
:103B2000FCF7F6FD00BF002001903348006840F02C
:103B30000400314908600846006800F00400019064
:103B400000BF00BF00BF002001900846006840F0A1
:103B5000800008600846006800F08000019000BF07
:103B600000BF00BF002001900846006840F001003F
:103B700008600846006800F00100019000BF00BF27
:103B800000BF002001900846006840F00200086075
:103B90000846006800F00200019000BF00BF00224C
:103BA0004FF400511548FEF71FFC01225B21144819
:103BB000FEF71AFC4FF4005002900120039004908D
:103BC0000020059002A90D48FEF722FB5B20029021
:103BD0000120039004900220059002A90848FEF7F6
:103BE00017FBA020029000200390049002A9044833
:103BF000FEF70EFB07B000BD30380240000802405F
:103C00000004024010B50F480F4908604FF482705D
:103C1000486000210C488160C160022101610121DE
:103C20004161490281611021C1610021016241624B
:103C300081620A21C162FFF7C2F808B1FEF7C9F933
:103C400010BD0000003001406803002000B587B0BF
:103C50000020039004900590069001900290154872
:103C6000154908600420486000211348816040F233
:103C7000E731C1600021016141618161FFF78EFA86
:103C800008B1FEF7A6F94FF48050039003A90A4843
:103C9000FFF787FB08B1FEF79CF900200190029026
:103CA00001A90548FFF72CFA08B1FEF792F907B011
:103CB00000BD000000000140C003002010B50B480B
:103CC0000B4908604FF4E1304860002108488160EA
:103CD000C16001610C21416100218161C161FFF777
:103CE0001FFE08B1FEF775F910BD0000001001407D
:103CF0000804002000BFFEE700BFFEE77CB50446D5
:103D00000E4615463346012202212046009500F05A
:103D100039F828B1606D40F02000606503207CBD5B
:103D2000164800681821B0FBF1F01549B0FBF1F01E
:103D30004FF47A71484301906068B0F5827F0DD1ED
:103D40003346002280212046009500F01BF898B1F0
:103D5000606D40F0200060650320E0E700BF01983F
:103D600000B908E00198401E019020688068C0F307
:103D7000C0100028F3D100BF0020D0E724000020AD
:103D800040420F002DE9F84F04460D4690461E466E
:103D9000DDF82890FEF72EFBA0EB0900371AFEF79E
:103DA00029FB82462C480068C0F3CB307843009052
:103DB00045E0701C002842D0FEF71CFBA0EB0A0077
:103DC000B84200D2A7BB2068406820F0E00021681C
:103DD00048606068B0F5827F0DD1A068B0F5004FF3
:103DE00003D0A068B0F5806F05D12068006820F08E
:103DF000400021680860A06AB0F5005F0DD100BFE7
:103E00002068006820F4005021680860206800687D
:103E100040F400502168086000BF012084F8510080
:103E200000BF002084F8500000BF0320BDE8F88FD9
:103E3000FFE7009800B900270098401E0090206816
:103E400080682840A84201D1012000E000204045C0
:103E5000AFD10020EAE700002400002010B54FF0A9
:103E6000E020006932F0E0FD012801D032F0A8F82E
:103E700010BD000000B593B0302107A8FCF748FC46
:103E8000142102A8FCF744FC00BF00200190234845
:103E9000006840F08050214908600846006800F042
:103EA0008050019000BF00BF00BF002001901C485F
:103EB000006840F440401A4908600846006800F471
:103EC0004040019000BF00BF01200790000408900F
:103ED00002200D9041050E910C210F91602110914F
:103EE000022111910421129107A8FEF7FFFC08B1ED
:103EF000FEF76FF80F20029002200390002004903C
:103F00004FF48050059000200690032102A8FEF790
:103F10008BFB08B1FEF75DF813B000BD40380240DE
:103F2000007000400348006840F4700001490860D8
:103F30007047000088ED00E010B50248FFF7B8FABE
:103F400010BD0000C003002010B50248FFF7B0FA12
:103F500010BD0000C003002010B50248FFF7A8FA0A
:103F600010BD00005005002010B50268244B984297
:103F70000BD0B0F1804F08D0224B984205D0224B95
:103F8000984202D0214B984203D122F070024B6834
:103F90001A431B4B984214D0B0F1804F11D0194BEB
:103FA00098420ED0184B98420BD0184B984208D02C
:103FB000174B984205D0174B984202D0164B9842A7
:103FC00003D122F44072CB681A4322F080034C697B
:103FD00043EA040202608B68C3620B688362084B89
:103FE000984201D10B69036301234361036903F024
:103FF00001031BB1036923F00103036110BD00003D
:10400000000001400004004000080040000C004097
:1040100000400140004401400048014030B50C46DA
:10402000816821F47F4142EA0325254329438160C9
:1040300030BD0A46816821F0700142F00703194340
:104040008160704730B50B461446026A056A25F058
:1040500001050562816921F0F00141EA041122F0B5
:104060000A021A438161026230BD30B50B46144624
:10407000026A056A25F010050562816921F4704124
:1040800041EA043122F0A00242EA03128161026295
:1040900030BD704770B50546AC6B0020E085E0840C
:1040A0002046FFF7C8FA70BD00BF00BF02680C329F
:1040B00052E8002F22F4907102680C3242E800139B
:1040C000002BF3D100BF00BF00BF0268143252E8DA
:1040D000002F22F001010268143242E80013002B85
:1040E000F3D100BF016B01290ED100BF00BF0268F0
:1040F0000C3252E8002F22F0100102680C3242E824
:104100000013002BF3D100BF202180F842100021C2
:104110000163704710B504462068C06820F0400075
:104120002168C860202084F841002046FFF7BEFCCB
:10413000002010BDF8B5044694F84200222875D13D
:10414000A068B0F5805F0CD1206950B90025A66A3F
:1041500020684068C0F308003080A06A801CA0621C
:1041600015E0A56A0026A068B0F5805F03D0A068BE
:1041700028B9206918B920684068287004E02068D0
:10418000406800F07F002870A06A401CA062E08DAB
:10419000401E80B2E085002846D12068C06820F02B
:1041A00020002168C8602068C06820F48070216801
:1041B000C8602068406920F0010021684861202023
:1041C00084F8420000206063206B012826D1002083
:1041D000206300BF00BF21680C3151E8001F21F0AF
:1041E000100021680C3141E80002002AF3D100BF21
:1041F0002068006800F0100010280AD100BF0020DD
:10420000009020680068009020684068009000BF1F
:1042100000BFA18D2046FFF70DFA02E02046FFF710
:104220001DFC0020F8BD01E00020FBE70220F9E7BB
:104230002DE9F84F04462068006920F44050E168F9
:104240000843216808612169A0680843616908433F
:10425000E169084300902068C06849F20C61884316
:10426000009908432168C8602068406920F44070C4
:10427000A16908432168486176492068884203D0D3
:1042800075492068884203D1FEF7C8FA814602E0EA
:10429000FEF7B4FA8146E069B0F5004F6CD1022018
:1042A0006168A0FB015003461920A9FB007001467C
:1042B0002A463846FCF7B6F86421B0FBF1F04FEA25
:1042C000001A02206168A0FB01510B461920A9FBCE
:1042D00000712A463846FCF7A5F88346022061683B
:1042E000A0FB015003461920A9FB00712A4638465D
:1042F000FCF798F86421B0FBF1F000EBC00101EB92
:104300000010ABEB8000322101EBC0006421B0FB58
:10431000F1F000F0F8000AEB400A02206168A0FB0F
:10432000015003461920A9FB007001462A46384671
:10433000FCF778F8834602206168A0FB0150034631
:104340001920A9FB00712A463846FCF76BF8642156
:10435000B0FBF1F000EBC00101EB0010ABEB800013
:10436000322101EBC0006421B0FBF1F000F0070046
:104370005044216888606AE004206168A0FB015015
:1043800003461920A9FB007001462A463846FCF76F
:1043900049F8824604206168A0FB015003461920B9
:1043A000A9FB007001462A463846FCF73BF8642119
:1043B000B0FBF1F000EBC00101EB0010AAEB8000B4
:1043C000322101EB00106421B0FBF1F000F0F00AA3
:1043D00004206168A0FB017003461920A9FB00516D
:1043E0003A462846FCF71EF86421B0FBF1F00AEBD0
:1043F000001A04206168A0FB01510B461920A9FB9B
:1044000000712A463846FCF70DF88346042061689F
:10441000A0FB015003461920A9FB007001462A4663
:104420003846FBF7FFFF6421B0FBF1F000EBC00161
:1044300001EB0010ABEB8000322101EB0010642196
:10444000B0FBF1F000F00F00504421688860BDE837
:10445000F88F0000001001400014014010B5034621
:1044600099629A85DA8500205864222083F84200F8
:10447000186928B11868C06840F480701C68E06052
:104480001868406940F001001C6860611868C068E5
:1044900040F020001C68E060002010BD014691F84B
:1044A0004100212828D18868B0F5805F0BD10869C8
:1044B00048B90A6A1088C0F308000B685860086A97
:1044C000801C086205E00B6A581C086218780B68AB
:1044D0005860C88C401E80B2C88458B90868C0684B
:1044E00020F080000B68D8600868C06840F0400089
:1044F0000B68D860002070470220FCE710B5024826
:10450000FFF79AF810BD00000804002000BFFEE786
:1045100003B401984100009850EAC12018BF04205C
:104520004A0D18BF40F0010040F2FF72B2EB515F3C
:1045300008BF40F00200012808BF052002B0704704
:1045400002480068C0F30220704700000CED00E054
:1045500010B5002804DB0A07130E054A135406E0C1
:104560000A07140E034A00F00F031B1FD45410BD9A
:1045700000E400E018ED00E0EFF30580704770B54F
:104580000446002508E02168481C2060087830387F
:1045900005EB850100EB41052168087800F004F87F
:1045A0000028F0D1284670BD0146302903DB3929A7
:1045B00001DC012070470020FCE730380A2801D2D6
:1045C000012070470020704710B54021074801F0D6
:1045D000E3FA00220F21064826F0EAFF05490860A9
:1045E00002F030FE00200449087010BDCCBF00204E
:1045F00011730008A4000020A000002030B503467D
:10460000B1F90040B2F90050AC4202DDB1F900400E
:1046100001E0B2F900401C80B1F90240B2F9025049
:10462000AC4202DDB1F9024001E0B2F902405C8027
:10463000B1F90440B2F90450AC4202DAB1F90440D5
:1046400001E0B2F904409C80B1F90640B2F906508D
:10465000AC4202DAB1F9064001E0B2F90640DC8072
:104660000120B3F90040B3F90450AC4205DCB3F9C2
:104670000240B3F90650AC4200DD002030BDF8B571
:1046800004460D4616460027B4F90000B5F900109F
:10469000884212DBB4F90200B5F9021088420CDB43
:1046A000B4F90400B5F90410884206DCB4F9060038
:1046B000B5F90610884200DC01270FB90020F8BDCB
:1046C0000EB90120FBE72088ADF800006088ADF846
:1046D000020032466946284600F0A7F808B90020D3
:1046E000EDE7A088ADF800006088ADF80200324622
:1046F0006946284600F099F808B90020DFE72088CD
:10470000ADF80000E088ADF8020032466946284660
:1047100000F08BF808B90020D1E7A088ADF80000C0
:10472000E088ADF8020032466946284600F07DF880
:1047300008B90020C3E70120C1E70246B2F9000032
:10474000B1F90430984213DCB2F90400B1F9003039
:1047500098420DDBB2F90200B1F90630984207DC4D
:10476000B2F90600B1F90230984201DB012070472E
:104770000020FCE7F8B504460D461646B4F90400DF
:10478000B5F90010884211DBB4F90600B5F9021042
:1047900088420BDBB4F90000B5F90410884205DC4F
:1047A000B4F90200B5F90610884201DD0120F8BD18
:1047B0000EB90020FBE72088ADF800006088ADF856
:1047C000020032466946284600F02FF808B1002062
:1047D000EDE7A088ADF800006088ADF80200324631
:1047E0006946284600F021F808B10020DFE720885C
:1047F000ADF80000E088ADF8020032466946284670
:1048000000F013F808B10020D1E7A088ADF800004F
:10481000E088ADF8020032466946284600F005F807
:1048200008B10020C3E70120C1E72DE9FC5F054680
:104830000E4614464FF0000AB6F90000B5F9001014
:10484000884213DBB6F90000B5F9041088420DDC8C
:10485000B6F90200B5F90210884207DBB6F902008A
:10486000B5F90610884201DC4FF0010ABAF1000FD9
:1048700002D10020BDE8FC9F002C01DC0120F9E7FB
:10488000284612F074FC834600EBDB704710284684
:1048900012F0E5FB834600EBDB704FEA600847450A
:1048A00001DA384600E0404681464C4500DD4C4682
:1048B0002888ADF800002888204400B2ADF8040034
:1048C0006888ADF802006888204400B2ADF80600A0
:1048D000002231466846FFF7A8FF80B1BDF804000A
:1048E000204400B2ADF80400BDF80600204400B238
:1048F000ADF806003146684623F0FEF9BAE7E888CD
:10490000001B00B2ADF80200E888ADF806000022F6
:1049100031466846FFF789FF80B1BDF804002044A6
:1049200000B2ADF80400BDF80200001B00B2ADF803
:1049300002003146684623F0DFF99BE7A888001B98
:1049400000B2ADF80000A888ADF80400002231469E
:104950006846FFF76AFF80B1BDF80000001B00B297
:10496000ADF80000BDF80200001B00B2ADF8020077
:104970003146684623F0C0F97CE76888ADF802004C
:104980006888204400B2ADF806000022314668462F
:10499000FFF74BFF80B1BDF80000001B00B2ADF87F
:1049A0000000BDF80600204400B2ADF80600314614
:1049B000684623F0A1F95DE701205BE710B5B1F986
:1049C0000030B2F90040A34202DAB1F9003001E050
:1049D000B2F900300380B1F90230B2F90240A342CB
:1049E00002DAB1F9023001E0B2F902304380B1F9E4
:1049F0000430B2F90440A34202DDB1F9043001E011
:104A0000B2F904308380B1F90630B2F90640A3420E
:104A100002DDB1F9063001E0B2F90630C38010BD05
:104A20002DE9FF41044626F04BFD0546002003908A
:104A300034B14749E0680860204626F0D1FE03E023
:104A400015F0F4F94249086041490968086923F002
:104A5000B1F83F480068406920B13D49096848699C
:104A600023F0A8F83A490968C86923F0A3F838493F
:104A70000968086A23F09EF835480068006940B963
:104A8000002033490968A1F8500100BF00BFBDE80C
:104A9000FF8123F02DFC23F073FB2D480068B0F854
:104AA000500100284BD02A4800680068007CC0F301
:104AB0004000E8B12648006815F036FA401E06B2FC
:104AC0002348006815F0CAF9401E07B23B46002291
:104AD000114601A8009612F09DFB01A81C49096827
:104AE0000968896B48601A48006805F021FC00BF1E
:104AF0004FF480711648006830301DF0DAFA20213A
:104B00001348006800F598701DF0D3FA0020104992
:104B10000968A1F85001284626F0C4FC03900C480F
:104B200000680068406A50B1094909680868084986
:104B3000096809684B6A07490A68039998471CF095
:104B4000EFFF00F03FF800F007F800BF9FE700001C
:104B50005C0000205800002010B5002416E0C4EBD3
:104B6000C4000C4951F8200030B1C4EBC401094A1B
:104B700052F821001DF086F8C4EBC401054A02EB8F
:104B800081001C211DF095FA601CC4B2042CE6DBE8
:104B900010BD0000A8C000200146094A10680BE0C3
:104BA00042688A4202D002688A4204D1027E22F020
:104BB0000102521C027640690028F1D170470000C2
:104BC000300000207047000010B50421014800F0BB
:104BD000E3FF10BDC0BF002010B51C21014800F04C
:104BE000DBFF10BDD8BF00202DE9FF4F8BB004467E
:104BF0009A46199DBAF1000F11D11898B0F5807F2F
:104C00000DD10020208060800C98401E00B2A08052
:104C10000D98401E00B2E0800FB0BDE8F08FB5F9EE
:104C200000004042189948430121C1EB202000B206
:104C30002080B5F902004042189948430121C1EB98
:104C4000202000B26080B5F900100C98401A189925
:104C50004843022101EB202000B2A080B5F90210E8
:104C60000D98401A18994843022101EB202000B208
:104C7000E080BAF1000F14D120882988084400B2DE
:104C8000208060886988084400B26080A0882988F4
:104C9000084400B2A080E0886988084400B2E0803F
:104CA000BAE70A209AFBF0F00A900A98401C099093
:104CB0000A9800EB8000AAEB400B0A9800B226F09D
:104CC00015FF0890099800B226F010FF07900A9887
:104CD0005A3000B226F00AFF069009985A3000B206
:104CE00026F004FF0590CBF10A010898414307988C
:104CF00000FB0B100A2190FBF1F6CBF10A0106989C
:104D00004143059800FB0B100A2190FBF1F7761147
:104D10007F11B4F90080B4F9029007FB08F006FB9C
:104D20001900298801EBA02000B2ADF8100006FBA5
:104D300008F007FB0900698801EBA02000B2ADF87C
:104D40001200B4F90480B4F9029007FB08F006FBE6
:104D50001900298801EBA02000B2ADF80C0006FB79
:104D600008F007FB0900698801EBA02000B2ADF84C
:104D70000E00B4F90080B4F9069007FB08F006FBBA
:104D80001900298801EBA02000B2ADF8080006FB4D
:104D900008F007FB0900698801EBA02000B2ADF81C
:104DA0000A00B4F90480B4F9069007FB08F006FB8A
:104DB0001900298801EBA02000B2ADF8040006FB21
:104DC00008F007FB0900698801EBA02000B2ADF8EC
:104DD0000600BDF90800BDF91010884202DABDF9DD
:104DE000080001E0BDF91000BDF90410BDF90C2068
:104DF000914202DABDF9041001E0BDF90C108842BD
:104E00000BDABDF90800BDF91010884202DABDF9CD
:104E100008000DE0BDF910000AE0BDF90400BDF97D
:104E20000C10884202DABDF9040001E0BDF90C0063
:104E30002080BDF90800BDF91010884202DDBDF9DF
:104E4000080001E0BDF91000BDF90410BDF90C2007
:104E5000914202DDBDF9041001E0BDF90C10884259
:104E60000BDDBDF90800BDF91010884202DDBDF967
:104E700008000DE0BDF910000AE0BDF90400BDF91D
:104E80000C10884202DDBDF9040001E0BDF90C0000
:104E9000A080BDF90A00BDF91210884202DABDF9FE
:104EA0000A0001E0BDF91200BDF90610BDF90E209F
:104EB000914202DABDF9061001E0BDF90E108842F8
:104EC0000BDABDF90A00BDF91210884202DABDF909
:104ED0000A000DE0BDF912000AE0BDF90600BDF9B7
:104EE0000E10884202DABDF9060001E0BDF90E009D
:104EF0006080BDF90A00BDF91210884202DDBDF9DB
:104F00000A0001E0BDF91200BDF90610BDF90E203E
:104F1000914202DDBDF9061001E0BDF90E10884294
:104F20000BDDBDF90A00BDF91210884202DDBDF9A2
:104F30000A000DE0BDF912000AE0BDF90600BDF956
:104F40000E10884202DDBDF9060001E0BDF90E0039
:104F5000E08000BF60E62DE9F74F86B00446206888
:104F60000590B4F908100798A0EB0108B4F90A10ED
:104F70000898A0EB0109E089B0F5807F13D1206B80
:104F800000FB08F0E16A01FB1901606A00EBA10B6C
:104F9000E06A00FB08F0216B01FB0901A06A00EB4D
:104FA000A10004902FE0A08980B9A06B00FB08F05D
:104FB0004FEA6018A06B00FB09F04FEA6019606AC5
:104FC00000EB080BA06A484404901CE0A06B00FBB7
:104FD00008F04FEA6018A06B00FB09F04FEA601977
:104FE000206B00FB08F0E16A01FB1901606A00EB2D
:104FF000A12BE06A00FB08F0216B01FB0901A06A0C
:1050000000EBA12004904FEA2B2604980712B4F974
:105010000400B04203DC002009B0BDE8F08F002E90
:1050200001DA0020F8E7B4F90600B84201DC0020FC
:10503000F2E7002F01DA0020EEE73420005DC0F334
:10504000800050B33420005DC0F3400078B90225E1
:10505000B4F904007843684306FB050A059800EBA1
:105060000A012A4604F114001CF0D1FF2CE00325AC
:10507000B4F904007843684306FB050A6A1E0598E4
:1050800000EB0A0104F114001CF0C1FF0AEB05005B
:10509000401E0599095CA17516E04FF0000A002535
:1050A000208A03463AB231B2019004F1180019F097
:1050B00091FC0290BDF80800A0823AB231B204F12E
:1050C000180019F0E7FBA0753420005D00F0010026
:1050D000B0B14FF47F40002100F47C4241EA52110C
:1050E000C0F3C40211430191BDF80420114602919E
:1050F000A08ABDF80810884201D100208CE700BFCB
:10510000E07C08B9012087E70FFA8BF1A1870498AA
:1051100001B2E18731B24020015339B2422001533C
:10512000C4F844A084F84850204600F003F80390E7
:10513000039871E72DE9F04F8DB00446D4F8009044
:1051400094F83C000C9094F83E000B900C9870285A
:105150000BDA4FF0FF35B4F940002844002800DA9C
:1051600000250C988030C7B213E00C9890280EDD13
:105170000125B4F940002844B4F90410884200DB4A
:1051800000250C98C0F1FF008030C7B201E0002577
:10519000FF270B9870280CDA4FF0FF36B4F9420065
:1051A0003044002800DA00260B98803000F0FF0819
:1051B00015E00B9890280FDD0126B4F94200304429
:1051C000B4F90610884200DB00260B98C0F1FF00FE
:1051D000803000F0FF0802E000264FF0FF08A08AB0
:1051E0000A90A07D06900020059004900390342042
:1051F000005DC0F3800000285BD094F84800626C2A
:1052000000FB052000EB0901022209A81CF0FFFEAB
:10521000A28894F8480012FB00F2606C02FB0600C2
:1052200000EB0901022208A81CF0F1FEA28894F804
:10523000480012FB00F2606C02FB060294F8480082
:1052400000FB052000EB0901022207A81CF0DFFE8D
:105250003420005DC0F3400000287ED094F8480060
:10526000616C00FB05110844401E19F80000059010
:10527000A18894F8480011FB00F1606C01FB060165
:1052800094F848000844401E19F800000490A188D2
:1052900094F8480011FB00F1606C01FB060194F8E2
:1052A000480000FB05110844401E19F80000039057
:1052B00053E0208A0090B4F942204020005B28444B
:1052C00001B204F11800009B19F084FB0990208AB8
:1052D00000904220005B304402B2B4F9401004F167
:1052E0001800009B19F076FB0890208A009042205D
:1052F000005B304402B24020005B284401B204F15C
:105300001800009B19F066FB07903420005DC0F385
:10531000400010B3B4F942204020005B284401B2A1
:1053200004F1180019F0B6FA05904220005B3044F1
:1053300002B2B4F9401004F1180019F0ABFA04906D
:105340004220005B304402B24020005B284401B29E
:1053500004F1180019F09EFA0390BA46BB463420B7
:10536000005DC0F34000E0B306987843C7F1FF0C3E
:10537000059B03FB0C00C0F3072104987843C7F199
:10538000FF0C039B03FB0C00C0F3072201FB08F09A
:10539000C8F1FF0302FB0300030AA375022905DC21
:1053A000022A03DC00200DB0BDE8F08F022901DCE9
:1053B0004FF00008022A01DC4FF0FF08069802288F
:1053C00001DC4FF0000A0598022801DC4FF0FF0ACB
:1053D0000498022801DC4FF0000B0398022803DC3C
:1053E00000E002E04FF0FF0B03E0BA46BB46FF21AE
:1053F000A175BAF1000F02D1099802900BE0BAF141
:10540000FF0F02D10A98029005E05246DDE909102B
:1054100013F086FF0290BBF1000F02D107980190B4
:105420000BE0BBF1FF0F02D10898019005E05A464E
:10543000DDE9071013F074FF0190B8F1000F03D1FC
:10544000BDF80400A0820FE0B8F1FF0F03D1BDF852
:105450000800A08208E04246DDE9011013F060FF79
:105460000090BDF80000A08201209CE72DE9F05FCC
:105470000446B4F9080001026162B4F90A000102AD
:10548000A162B4F90C000A2190FBF1F56F1CB4F98C
:105490000C0005EB8501A0EB4106684200B226F046
:1054A00025FB8046784200B226F020FB8146C5F1FC
:1054B0005A0000B226F01AFB8246C7F15A0000B229
:1054C00026F014FB8346C6F10A0000FB08F009FB36
:1054D00006000A2190FBF1F1E162C6F10A0000FB2F
:1054E0000AF00BFB06000A2190FBF1F12163E06A50
:1054F0004111E162206B41112163A07C19F079FB1D
:105500003421095D60F3000134200155A07C19F0BD
:1055100053FB3421095D60F3410134200155A07C27
:10552000042805D0A07C052802D0A07C062807D13D
:105530003420005D20F00400001D3421085505E0F2
:105540003420005D20F004013420015521682162DF
:10555000A06920F0E000A061A17CA06961F30400D3
:10556000A061A188A06961F39420A061E188A0698D
:1055700061F35F50A061E08900EBD071491001F543
:10558000001191FBF0F2A263FF21A175208AA08295
:10559000BDE8F09F2DE9F743054616460024134C5D
:1055A00025F08EFF8046334629462046019A19F0A1
:1055B000CFFF07465FB900BF00BF2C2120461CF07B
:1055C00078FD4FF00040A0620020BDE8FE8300207F
:1055D000A062E06918B9404625F064FFE061E06927
:1055E00008B90120E0612046EFE70000FCBF002081
:1055F00010B51421114800F0CFFA19F05BFF0446F2
:1056000000BF1CB900BF00BF00BFFEE700BF14B958
:1056100000BF00BF10BD0A4920461AF033F80949FF
:1056200020461AF031F8084920461AF02FF80749A9
:1056300020461AF025F800BFECE70000E4BF002088
:10564000D1EC0108A5F10108C1F3010899EC0108AA
:1056500070B504460D46102128461CF02AFD20682E
:105660000078012804D1208A2880608A68800CE0B4
:1056700020680078022802D1E068686005E02068B0
:105680000078042801D10A2068602068406820B1B1
:10569000206829464268904701E000BF00BF70BD06
:1056A0002DE9FE430446A66AEEB9A18A208A084481
:1056B00001B2A182E18A608A084401B2E1822046F7
:1056C0000CF055FB06460EB9BDE8FE8320460FF0F0
:1056D000D9FC00220921304618F07CF86078C0F32C
:1056E000400000B1F0E7208A10B9608A002870D02D
:1056F00000200290019094F83C0000F00F00032875
:1057000012D130461EF08EFD074630461EF012FDC7
:10571000804603200090B4F910103B4642463046C4
:105720000BF01CFE029012E030461EF0FDFD074615
:1057300030461EF071FC80460C200090B4F9121027
:1057400043463A4630460BF009FE019000BF304612
:105750001EF0C2FC054605F0010028B9BDF908009D
:10576000002801DD0020029005F0020028B9BDF9F3
:105770000800002801DA0020029005F0040028B992
:10578000BDF90400002801DD0020019005F00800AB
:1057900028B9BDF90400002801DA0020019001AA0F
:1057A00002A9204629F00CFA0023BDF90420BDF916
:1057B0000810304621F096FCA08ABDF80810084475
:1057C00001B2A182E08ABDF80410084401B2E1826E
:1057D00000BF00BF78E72DE9F84F0446D4F828B0A1
:1057E000BBF1000F01D1BDE8F88F94F83C0000F048
:1057F0000F0000B9F7E71AF02DFA06463068477E29
:105800004021584620F098F910B900216183218386
:1058100058461EF075FD804658461EF07BFD054635
:1058200094F83C0000F00F000C2843D100212183A4
:105830001DBBB4F91A00C7F164014843642190FB11
:10584000F1F001B2618358461EF0E6FB81465846EE
:105850001EF06AFD82460C200090B4F91A104B46E7
:10586000524658460BF07AFD6083B4F91A200023A3
:105870001946584621F036FC69E0204629F0F7F930
:105880000090002161836A46204629F099F9BDF90C
:10589000003041F6FF72514258460CF011FC81462F
:1058A000BDF80000484402B201230021584621F00F
:1058B00019FC4CE094F83C0000F00F00032846D19E
:1058C00000216183B8F1000F23D1B4F91800C7F1AA
:1058D00064014843642190FBF1F001B221835846F2
:1058E0001EF028FC814658461EF09CFC8246032090
:1058F0000090B4F9181053464A4658460BF02EFD56
:105900002083B4F9181000231A46584621F0EAFB08
:105910001DE0204629F090F900900021218300220B
:105920006946204629F04CF9BDF9003041F6FF7276
:10593000514258460CF02AFB8146BDF8000048440D
:1059400001B201230022584621F0CCFB00BF208B7E
:10595000002860D1608B00285DD11DBB58461EF029
:10596000E3FC814658461EF057FB8246B9F1000F12
:1059700002DCBAF1000F14DDB9F1000F06DA0123E1
:105980004A460021584621F0ADFB0AE0BAF1000F6B
:1059900007DA0123CAF1000002B20021584621F0C3
:1059A000A1FB00BFB8F1000F23D158461EF0C2FB87
:1059B000814658461EF036FC8246B9F1000F02DCE3
:1059C000BAF1000F14DDB9F1000F06DA012300224D
:1059D0004946584621F086FB0AE0BAF1000F07DA83
:1059E00001230022CAF1000001B2584621F07AFBDF
:1059F00000BF32460A21584617F0ECFE6078C0F32B
:105A0000400000B1EFE694F83C0020F00F0184F86C
:105A10003C100021A16200BFE5E62DE9FF410446EC
:105A20000F4614B914F002FA04460CB9BDE8FF8120
:105A30001FB90020A4F85001F8E70020ADF80800D5
:105A4000ADF80A00204614F009FA401E00B2ADF885
:105A50000C00204614F068FA401E00B2ADF80E00AB
:105A600002AA39466846FEF7C9FD064606B9DDE7D3
:105A70002068007CC0F3400060B102982063039866
:105A800060630120A4F85001606810B1606825F0DF
:105A9000B3FECBE72068806918B120686946826947
:105AA000904700250BE004F1300000EBC501002217
:105AB0006846FEF7E4FD00B1B8E7681C85B2B4F8AB
:105AC0005001A842EFDCB4F85001202809DAB4F8FC
:105AD000502104F1300101EBC200694611F03DFA9A
